:1000000002C100000C9421090C94F6080C94CB0852
:100010000C94A0080C9475080C944A080C941F08C2
:10002000E3C7000021C100001FC100001DC1000086
:100030001BC1000019C1000017C1000015C100005C
:1000400013C1000011C100000FC100000DC100006C
:100050000BC1000009C1000007C100007BC7000000
:1000600003C1000041C7000016C70000FDC000002A
:10007000FBC00000F9C00000F7C00000F5C00000A0
:10008000F3C00000F1C00000EFC00000EDC00000B0
:10009000CCC60000A1C60000E7C00000E5C000001B
:1000A000E3C00000E1C00000DFC00000DDC00000D0
:1000B000DBC00000D9C00000D7C00000D5C00000E0
:1000C000D3C00000D1C00000CFC00000CDC00000F0
:1000D000CBC00000C9C00000C7C00000C5C0000000
:1000E000C3C0000000002100240027002A002D00CA
:1000F0003000330001010000040107010A01000083
:100100002200250028002B002E00310034000201BF
:100110000000050108010B0100002000230026005B
:1001200029002C002F00320000010000030106010D
:10013000090105050505070508080808020202026D
:100140000A0A080804040404010101010101010173
:100150000303030303030303040707070C0C0C0C3E
:100160000C0C0C0C02020202060606060606060627
:100170000B0B0B0B0B0B0B0B0102102020080810B4
:100180002040102040800201020108040201010207
:1001900004081020408080402010080402018004E0
:1001A000020180402010080402010804020101023B
:1001B0000408102040800102040810204080000044
:1001C0000A0B02090C0D0E080703040100000000D1
:1001D000000000000000000000000000000000001F
:1001E00000000000000000000000121110000000DC
:1001F00000000000000000000000000000000000FF
:10020000000000004C0911241FBECFEFD1E2DEBF79
:10021000CDBF00E00CBF12E0A0E0B2E0EAE2FAE1FC
:1002200000E00BBF02C007900D92A83FB107D9F7BD
:1002300024E0A8EFB2E001C01D92AB3EB207E1F7A7
:1002400011E0C3E0D1E000E006C021970109802F52
:10025000FE010E94F40CC230D10780E00807A9F724
:100260000E94420A0C94130DCBCEFC01A089B189E7
:1002700082E08C93A485B5851C92A685B7858FEC0A
:100280008C93108EA489B58986E08C93A289B3895A
:100290008C9180618C93A289B3898C9188608C93B6
:1002A000A289B3898C9180688C930288F389E02DB0
:1002B00080818F7D8083089596E0899FD0011124ED
:1002C000AC59BB4F90967C936E935F9791E091965B
:1002D0009C939197E091D104F091D2049091D00435
:1002E000992339F0309751F0811108C08091800432
:1002F0001994309719F05C968C91FACF0895CF92AB
:10030000DF92EF92FF920F931F9396E0899FF00187
:100310001124EC59FB4F11A2278D30A1213031055A
:1003200049F178F02230310509F44FC0233031050E
:1003300009F450C01F910F91FF90EF90DF90CF9084
:1003400008956623B9F361E070E0B6DF2FB7F89443
:100350008091260390912703A0912803B09129034F
:100360002FBF8093BC049093BD04A093BE04B093B0
:10037000BF04E0CF9FB7F894C0902603D090270326
:10038000E0902803F09029039FBF0091BC041091D6
:10039000BD042091BE043091BF04C01AD10AE20A04
:1003A000F30A0091CE041091CF0430E020E00C1548
:1003B0001D052E053F0548F462E070E01F910F9186
:1003C000FF90EF90DF90CF9077CF6111B3CF63E0D4
:1003D00070E0F4CF70E060E0F1CFAF92BF92CF92C7
:1003E000DF92EF92FF920F931F93CF93DF936C01F5
:1003F0007B018B01040F151FEB015E01AE18BF08D6
:10040000C017D10759F06991D601ED91FC91019087
:10041000F081E02DC6011995892B79F7C501DF918F
:10042000CF911F910F91FF90EF90DF90CF90BF90F1
:10043000AF900895FC01538D448D252F30E0842F1B
:1004400090E0821B930B541710F0CF9608950197FC
:100450000895FC01918D828D981761F0A28DAE0FE9
:10046000BF2FB11D5D968C91928D9F5F9F73928F70
:1004700090E008958FEF9FEF0895FC01918D828D9C
:10048000981731F0828DE80FF11D858D90E0089569
:100490008FEF9FEF0895FC01918D228D892F90E0C1
:1004A000805C9F4F821B91098F73992708958AE280
:1004B00093E0F1DF21E0892B09F420E0822F0895F9
:1004C00087EC93E0E8DF21E0892B09F420E0822F1C
:1004D0000895FC01A48DA80FB92FB11DA35ABF4FD9
:1004E0002C91848D90E001968F739927848FA68933
:1004F000B7892C93A089B1898C91837080648C9387
:10050000938D848D981306C00288F389E02D808135
:100510008F7D80830895EF92FF920F931F93CF9367
:10052000DF93EC0181E0888F9B8D8C8D98131AC02E
:10053000E889F989808185FF15C09FB7F894EE8915
:10054000FF896083E889F989808183708064808372
:100550009FBF81E090E0DF91CF911F910F91FF90BD
:10056000EF900895F62E0B8D10E00F5F1F4F0F7365
:100570001127E02E8C8D8E110BC00FB607FCFACF21
:10058000E889F989808185FFF5CFCE01A2DFF2CF1E
:10059000EB8DEC0FFD2FF11DE35AFF4FF0829FB75B
:1005A000F8940B8FEA89FB8980818062D0CFCF934A
:1005B000DF93EC01888D8823B1F0AA89BB89E88993
:1005C000F9898C9185FD03C0808186FD0CC00FB632
:1005D00007FCF7CF8C9185FFF2CF808185FFEDCFAF
:1005E000CE0177DFEACFDF91CF910895815082313C
:1005F00008F05AC0E82FF0E08827EE5FFC4F8F4FDD
:100600000C94F40C2203260314031A031E03540350
:1006100029032F03330339033D03410347034B03EE
:1006200054034F0355035903809180008F778093C3
:1006300080000895809180008F7DF9CF80918000A7
:10064000877FF5CF84B58F7784BD089584B58F7D7E
:10065000FBCF8091B0008F778093B0000895809198
:10066000B0008F7DF9CF809190008F7780939000BC
:100670000895809190008F7DF9CF80919000877FC1
:10068000F5CF8091A0008F778093A000089580918E
:10069000A0008F7DF9CF8091A000877FF5CF80915A
:1006A00020018F77809320010895809120018F7D14
:1006B000F9CF80912001877FF5CFCF93DF93282F4B
:1006C00030E0F901E254FE4F8491F901E858FE4F01
:1006D000D491F901EE5CFE4FC491CC2399F08111C5
:1006E00085DFEC2FF0E0EE0FFF1FE85EFE4FA591D7
:1006F000B491EC91ED2381E090E009F480E0DF918A
:10070000CF91089580E090E0FACF862FD6CF1F9347
:10071000CF93DF93282F30E0F901E254FE4F84910C
:10072000F901E858FE4FD491F901EE5CFE4FC491F7
:10073000CC23A1F0162F811159DFEC2FF0E0EE0F42
:10074000FF1FE250FF4FA591B4918FB7F894EC9141
:10075000111108C0D095DE23DC938FBFDF91CF91BC
:100760001F910895DE2BF8CF862F642FD0CFCF9323
:10077000DF9390E0FC01E858FE4F24918E5C9E4F81
:10078000FC0184918823C9F090E0880F991FFC0137
:10079000EC51FF4FA591B491FC01E250FF4FC59180
:1007A000D49161110DC09FB7F8948C91209582234C
:1007B0008C938881282328839FBFDF91CF91089550
:1007C000623051F49FB7F8943C91822F8095832337
:1007D0008C93E8812E2BEFCF8FB7F894EC912E2BD2
:1007E0002C938FBFEACF862F642FC1CF3FB7F894E9
:1007F0008091090390910A03A0910B03B0910C031F
:1008000026B5A89B05C02F3F19F00196A11DB11D6B
:100810003FBFBA2FA92F982F8827BC01CD01620FA7
:10082000711D811D911D42E0660F771F881F991F62
:100830004A95D1F708950895089590E080E00895CD
:10084000982F907F92B910981198129AEFE9FFE0D3
:100850003197F1F700C000001298F0E18F9FC001BE
:10086000112482B910981198129A8FE99FE001978C
:10087000F1F700C0000012980895FB0101900020DC
:10088000E9F73197AF01461B570BDC01ED91FC9165
:100890000280F381E02D19940F931F93CF93DF9380
:1008A000EC01EBDF8C0169E672E0CE01E6DF800F40
:1008B000911FDF91CF911F910F910895CF92DF92F9
:1008C000EF92FF920F931F93CF93DF9304E212E016
:1008D000CAE08AE1E82E82E0F82E90E1C92E92E08B
:1008E000D92ED1E08AE293E0D6DD892B09F496C0B7
:1008F0008AE293E0AEDD80930703803401F5D801EE
:10090000EC2F1D92EA95E9F76DEF72E084E292E038
:100910000E940C0D1092FC021092FB02EDEFF2E02F
:10092000DF018C2F1D928A95E9F769E672E08AE271
:1009300093E0A3DF64E272E08AE293E0ADDF8091AE
:100940000703833201F5D701EC2F1D92EA95E9F7F1
:100950006DEF72E08AE192E00E940C0D1092FC02B1
:100960001092FB02EDEFF2E0DF018C2F1D928A95D1
:10097000E9F769E672E08AE293E07FDF6AE172E01C
:100980008AE293E089DF80910703853201F5D60181
:10099000EC2F1D92EA95E9F76DEF72E080E192E0AD
:1009A0000E940C0D1092FC021092FB02EDEFF2E09F
:1009B000DF018C2F1D928A95E9F769E672E08AE2E1
:1009C00093E05BDF60E172E08AE293E065DF8091B3
:1009D000FC0290910703813081F4903409F482CFB6
:1009E0008091FB02E82F082E000CFF0BE350FD4F17
:1009F00090838F5F8093FB0275CF943209F072CFA2
:100A0000811170CF1092FB02EDEFF2E0DF018C2F2D
:100A10001D928A95E9F7D093FC0264CFDF91CF91C4
:100A20001F910F91FF90EF90DF90CF90089580E09D
:100A300090E0892B21F044DD81110E94000037DD18
:100A400081113CDF80E090E0892B49F080E090E06C
:100A5000892B29F00E94000081110E94000080E093
:100A600090E0892B49F080E090E0892B29F00E94EA
:100A7000000081110C9400000895CF93DF93EC01E6
:100A800060E08E8144DE61E08E8141DE60E08E8137
:100A90003EDE8BE891E00197F1F7DF91CF91089569
:100AA000CF92DF92EF92FF920F931F93CF93DF933A
:100AB0006C017C0187E0E80EF11CD0E0C0E0062F5D
:100AC00010E0B8010C2E02C0759567950A94E2F704
:100AD0006170F70181917F011ADE2196C430D10542
:100AE00081F7C601DF91CF911F910F91FF90EF9099
:100AF000DF90CF90C2CFCF92DF92EF92FF920F9311
:100B00001F93CF93DF93EC01F62E642F8C81FFDDD2
:100B10008D818F3F11F060E0FADD0F2D10E08F85A1
:100B200084FF23C06E0187E0C80ED11CF12CE12C9C
:100B3000B8010E2C02C0759567950A94E2F76170B2
:100B4000F60181916F01E3DDFFEFEF1AFF0A88E004
:100B5000E816F10469F7CE01DF91CF911F910F9153
:100B6000FF90EF90DF90CF9088CFB80184E075952B
:100B700067958A95E1F7CE0193DF6F2DCE01DF9166
:100B8000CF911F910F91FF90EF90DF90CF9088CF82
:100B900040E0682F83ED94E0AECF9091E604891792
:100BA00010F08FEF890FE82FF0E0ED52FB4F8489B2
:100BB0008068EECF81E0ECDF8BE39FE10197F1F7F6
:100BC00008958F929F92AF92BF92CF92DF92EF9251
:100BD000FF9260E08CE29BDDEDDF80E0DEDF6CE623
:100BE00072E083ED94E049DE68E772E087EC93E021
:100BF00053DEFCDD4B015C0180E2C82E8EE4D82E72
:100C0000E12CF12CF3DD681979098A099B09683E0A
:100C1000734081059105B0F321E0C21AD108E108C3
:100C2000F10888EE880E83E0981EA11CB11CC11447
:100C3000D104E104F10431F7BDDF80E0AEDF6BE702
:100C400072E083ED94E019DE81E0A7DF6DE872E0E9
:100C500083ED94E012DE80910E0390910F038230B9
:100C60009105C9F083309105E9F0019759F44AE004
:100C700050E066E770E084E292E0BED610920F0387
:100C800010920E03FF90EF90DF90CF90BF90AF9047
:100C90009F908F9008954AE050E066E770E08AE107
:100CA00092E0EBCF4AE050E066E770E080E192E04E
:100CB000E4CFCF93DF93613029F09091E204986004
:100CC0009093E2046093E6041092E70490E490931A
:100CD000E8048093E904805C8093EA0461E08091F9
:100CE000D70445DD8091D8048F3F11F061E03FDDEE
:100CF00061E08091D9043BDDC3EDD4E09E01235D2A
:100D000034408091E20484FD0AC084E090E02196A2
:100D1000281739073CF461E08E8129DDEFCF88E0A8
:100D200090E0F5CF8BE39DE00197F1F760E08091D3
:100D3000D704EDDC60E08091D904E9DC8091D8042F
:100D40008F3F11F060E0E3DC8091E20484FD2CC071
:100D500063E083ED94E0A4DECBE4D6E4CE0101971A
:100D6000F1F763E083ED94E09BDE2197F1F763E018
:100D700083ED94E095DE83E592E00197F1F762E080
:100D800083ED94E08DDE8091E204806201DF84E0F7
:100D90008093E3048CE0FCDE0DDF82E08093E404CA
:100DA00086E0DF91CF91F4CE8062F2DE8BE496E4B0
:100DB0000197F1F78091E2048062EADE83E592E038
:100DC0000197F1F78091E2048062E2DEDCCF41E03E
:100DD00092DE81E090E008951F920F920FB60F927D
:100DE00011240BB60F922F933F934F935F936F9302
:100DF0007F938F939F93AF93BF93EF93FF938AE279
:100E000093E067DBFF91EF91BF91AF919F918F913D
:100E10007F916F915F914F913F912F910F900BBEFA
:100E20000F900FBE0F901F9018951F920F920FB644
:100E30000F9211240BB60F922F938F939F93EF93E2
:100E4000FF93E0913A03F0913B038081E0914003EE
:100E5000F091410382FD1DC09081809143038F5F1B
:100E60008F7320914403821741F0E0914303F0E037
:100E7000E65DFC4F958F80934303FF91EF919F9127
:100E80008F912F910F900BBE0F900FBE0F901F9060
:100E900018958081F2CF1F920F920FB60F921124F6
:100EA0000BB60F922F933F934F935F936F937F9364
:100EB0008F939F93AF93BF93EF93FF9387EC93E050
:100EC00008DBFF91EF91BF91AF919F918F917F913F
:100ED0006F915F914F913F912F910F900BBE0F90AB
:100EE0000FBE0F901F9018951F920F920FB60F9282
:100EF00011240BB60F922F938F939F93EF93FF9331
:100F0000E091D703F091D8038081E091DD03F09167
:100F1000DE0382FD1DC090818091E0038F5F8F739F
:100F20002091E103821741F0E091E003F0E0E95302
:100F3000FC4F958F8093E003FF91EF919F918F91EC
:100F40002F910F900BBE0F900FBE0F901F90189512
:100F50008081F2CF1F920F920FB60F9211242F9320
:100F60003F938F939F93AF93BF938091260390916C
:100F70002703A0912803B09129033091080323E0AF
:100F8000230F2D3758F50196A11DB11D209308039D
:100F90008093260390932703A0932803B0932903FB
:100FA0008091090390910A03A0910B03B0910C0367
:100FB0000196A11DB11D8093090390930A03A0938C
:100FC0000B03B0930C03BF91AF919F918F913F9111
:100FD0002F910F900FBE0F901F90189526E8230FAA
:100FE0000296A11DB11DD2CF1F920F920FB60F9284
:100FF00011240BB60F922F933F934F935F936F93F0
:101000007F938F939F93AF93BF93EF93FF93E09161
:101010000E02F0910F021995FF91EF91BF91AF91E0
:101020009F918F917F916F915F914F913F912F9100
:101030000F900BBE0F900FBE0F901F9018951F9230
:101040000F920FB60F9211240BB60F922F933F936E
:101050004F935F936F937F938F939F93AF93BF93C0
:10106000EF93FF93E0910C02F0910D021995FF911F
:10107000EF91BF91AF919F918F917F916F915F9110
:101080004F913F912F910F900BBE0F900FBE0F907D
:101090001F9018951F920F920FB60F9211240BB646
:1010A0000F922F933F934F935F936F937F938F9301
:1010B0009F93AF93BF93EF93FF93E0910202F09160
:1010C00003021995FF91EF91BF91AF919F918F917D
:1010D0007F916F915F914F913F912F910F900BBE38
:1010E0000F900FBE0F901F9018951F920F920FB682
:1010F0000F9211240BB60F922F933F934F935F9350
:101100006F937F938F939F93AF93BF93EF93FF93CF
:10111000E0910002F09101021995FF91EF91BF91CA
:10112000AF919F918F917F916F915F914F913F917F
:101130002F910F900BBE0F900FBE0F901F90189520
:101140001F920F920FB60F9211240BB60F922F938E
:101150003F934F935F936F937F938F939F93AF933F
:10116000BF93EF93FF93E0910A02F0910B02199560
:10117000FF91EF91BF91AF919F918F917F916F916F
:101180005F914F913F912F910F900BBE0F900FBE2B
:101190000F901F9018951F920F920FB60F92112467
:1011A0000BB60F922F933F934F935F936F937F9361
:1011B0008F939F93AF93BF93EF93FF93E0910802B8
:1011C000F09109021995FF91EF91BF91AF919F9115
:1011D0008F917F916F915F914F913F912F910F90E0
:1011E0000BBE0F900FBE0F901F9018951F920F927D
:1011F0000FB60F9211240BB60F922F933F934F937C
:101200005F936F937F938F939F93AF93BF93EF936E
:10121000FF93E0910602F09107021995FF91EF917B
:10122000BF91AF919F918F917F916F915F914F91FE
:101230003F912F910F900BBE0F900FBE0F901F90FC
:1012400018951F920F920FB60F9211240BB60F92A2
:101250002F933F934F935F936F937F938F939F93BE
:10126000AF93BF93EF93FF93E0910402F0910502D7
:101270001995FF91EF91BF91AF919F918F917F91C0
:101280006F915F914F913F912F910F900BBE0F90F7
:101290000FBE0F901F90189510922D0310922C03E3
:1012A00048EE53E060E070E040932E0350932F032C
:1012B000609330037093310385E492E090932B03A5
:1012C00080932A032DEC30E03093370320933603CC
:1012D0002CEC30E0309339032093380328EC30E0D5
:1012E00030933B0320933A0329EC30E030933D03E5
:1012F00020933C032AEC30E030933F0320933E03DD
:101300002EEC30E0309341032093400310924303CE
:101310001092440310924503109246031092CA03A0
:101320001092C9034093CB035093CC036093CD0339
:101330007093CE039093C8038093C70385EC90E02D
:101340009093D4038093D30384EC90E09093D603DE
:101350008093D50380EC90E09093D8038093D703DB
:1013600081EC90E09093DA038093D90382EC90E0D3
:101370009093DC038093DB0386EC90E09093DE0394
:101380008093DD031092E0031092E1031092E203D8
:101390001092E3031092D6041092D50481E692E0F5
:1013A0009093D4048093D30486E18093D70487E19B
:1013B0008093D80488E18093D9048AE18093DA0489
:1013C0008BE18093DB048CE18093DC048DE18093DE
:1013D000DD041092DE041092DF041092E0041092FB
:1013E000E1041092E20461E080E163DC10926604A3
:1013F00010926A041092690410926B0487E592E0DF
:101400009093650480936404E0E8F4E01082148211
:1014100013821582369684E0EC3BF807B9F781E336
:1014200092E09093C7048093C6048EE292E090937A
:10143000C9048093C80484E08093CA0483E0809345
:10144000CB0485E392E09093C5048093C4048AE0C2
:1014500090E09093CD048093CC0484EF91E090933E
:10146000CF048093CE041092D2041092D104109233
:10147000C0041092C1041092C2041092C3041092CE
:10148000D0040895789484B5826084BD84B5816069
:1014900084BD85B5826085BD85B5816085BD80913F
:1014A0006E00816080936E001092810080918100B7
:1014B00082608093810080918100816080938100AF
:1014C000809180008160809380008091B100846071
:1014D0008093B1008091B00081608093B0008091D2
:1014E000910082608093910080919100816080934F
:1014F0009100809190008160809390008091A10084
:1015000082608093A1008091A10081608093A100FE
:101510008091A00081608093A00080912101826071
:10152000809321018091210181608093210180912C
:10153000200181608093200180917A0084608093F3
:101540007A0080917A00826080937A0080917A009C
:10155000816080937A0080917A00806880937A001D
:101560001092C10061E08CE202D961E08DE2FFD807
:1015700061E08EE2FCD860E082E0F9D864E084E1CA
:1015800098DB18DB80E009DB6BE772E083ED94E029
:1015900074D987EC93E00E9435018AE293E00E94BF
:1015A000350181EE95E090930102809300028091D5
:1015B0006A00836080936A00EC9A77247394812C8C
:1015C000912C5401839442E1442E43E0542E5AE07E
:1015D000652E7092D0048FB7F894409126035091F5
:1015E000270360912803709129038FBF8091C00465
:1015F0009091C104A091C204B091C304481B590B3F
:101600006A0B7B0B8091CC049091CD04B0E0A0E0FC
:1016100084179507A607B70708F00BC1C0E08091B3
:10162000CA04C81758F4E091C604F091C704EC0F3F
:10163000F11D62E080819BD8CF5FF1CF312C80918A
:10164000CB04381608F05AC0032D10E0E091C8040E
:10165000F091C904E00FF11F61E0808188D8E0912A
:10166000C804F091C904E00FF11F60E080814FD8F9
:10167000D501C401032C04C0880F991FAA1FBB1FEA
:101680000A94D2F76C017C01E094F094212C8091B3
:10169000CA042816F0F4C22DD0E0E091C604F091FF
:1016A000C704EC0FFD1F808108D82496CC0FDD1FE6
:1016B000CC59DB4F892B41F4888199818C299D2954
:1016C000998388832394E3CF888199818E219F21F8
:1016D000F7CFE091C804F091C904E00FF11F61E079
:1016E000808115D88091C8049091C904080F191FF2
:1016F00060E0D8018C913BD83394A1CF04E614E08C
:10170000E8018F8D98A1892B31F41C8EEFEFFFEF4C
:10171000FE8FED8F19A22696F4E0C03ADF0789F715
:10172000F12C8091CA04F81608F053C0E12CCF2C9C
:10173000D12CCC0CDD1CC60184599B4F6C0120912F
:10174000CB04E21608F043C0D6016D917C910E2CBB
:1017500002C0769567950A94E2F7F29E90011124F3
:101760002E0D311DE4E6F4E080E0458D568D241702
:10177000350709F437C18F5F36968A30B1F760FFBD
:1017800024C0E4E6F4E090E080E0448D411118C00C
:10179000E091C404F091C504E20FF31F4081B6E06C
:1017A000B89FF001B99FF00D1124EC59FB4F448F05
:1017B000368F258F10A2178E61E00E947F0105C031
:1017C000019636968A30910501F7E394B8CFF394E9
:1017D000A8CF80E0F80191A19111892F0A5F1F4FD6
:1017E000C017D107B9F79FB7F894409126035091DD
:1017F000270360912803709129039FBF4093C00481
:101800005093C1046093C2047093C304882389F089
:1018100080918504882369F0C0918304D091840469
:10182000C130D10531F410918004111105C0FFD8E9
:10183000D0CE1092D004FBCF133209F04DC062E13C
:1018400073E08CE193E0E8D0109211031092100342
:10185000D201E62D1D92EA95E9F76CE173E084E28E
:1018600092E0D1D0892B21F4D0930F03C0930E03C3
:101870006CE173E08AE192E0C6D0892B31F482E01A
:1018800090E090930F0380930E036CE173E080E18E
:1018900092E0B9D0892B31F4A3E0B0E0B0930F030C
:1018A000A0930E0380910E0390910F03019703976D
:1018B00008F069C07FD980E070D967EA72E083EDF3
:1018C00094E00E943D0470920D03ECE1F3E0DF012F
:1018D000362D1D923A95E9F7809111038130F1F48C
:1018E0001332A1F180911003E82F082E000CFF0B9A
:1018F000EE5EFC4F108380540E942004C0911003C0
:10190000EC2F0C2E000CFF0BEE5EFC4F41E06081D3
:1019100083ED94E0F0D8CF5FC09310031A32B1F496
:1019200080911103811112C010921003D201E62D93
:101930001D92EA95E9F7709211032FD968EC72E0D5
:1019400083ED94E00E943D0410920D0380910D03FD
:10195000813009F06CCF21D969ED72E083ED94E01C
:101960000E943D04113309F062CF24D980E015D9DB
:101970006DEE72E083ED94E00E943D0461E08CE244
:101980000E94870354CF81E00E94200480E80E94D7
:10199000200420E0E22F022E000CFF0BEB54FD4F41
:1019A0008081882309F491CF982F907F92B9109A63
:1019B0001198129AEFE9FFE03197F1F700C00000AB
:1019C0001298F0E18F9FC001112482B9109A1198EA
:1019D000129A8FE99FE00197F1F700C0000012987A
:1019E0002F5FD8CF6170E9CEEE0FFF1F881F8BBF2E
:1019F0000790F691E02D1994DC0101C06D934150E0
:101A00005040E0F70895FB01DC018D9101908019B1
:101A10000110D9F3990B0895FB01DC0101900D929F
:0A1A20000020E1F70895F894FFCFCD
:101A2A001B041B041B041B041B041B041B041B04B4
:101A3A003232320000000000000031313100000073
:101A4A00000000003030300000000000000031309B
:101A5A002F323334353132333435363738392A3048
:101A6A0023000000008B02ED011A02D7024B022963
:101A7A00023D0200000000F303B4038503000000E6
:101A8A0000E706ED011D041C040D0A004C6F636B90
:101A9A00696E6720426F78004F4B0057656C636F21
:101AAA006D652050617263656C426F780044656CA5
:101ABA006976657279206C6F676765642026207382
:101ACA007563636573730041757468656E746963E1
:101ADA0061746564004F7264657220496420496EBE
:101AEA00636F727265637400456E746572206F72FB
:101AFA006465722069643A200050726573732031FC
:101B0A0020746F206F70656E20626F7800426F7864
:081B1A00206F70656E65640028
:00000001FF
